{
  "_format": "hh-sol-artifact-1",
  "contractName": "RemiToken",
  "sourceName": "contracts/RemiToken.sol",
  "abi": [
    {
      "inputs": [],
      "stateMutability": "nonpayable",
      "type": "constructor"
    },
    {
      "inputs": [
        {
          "internalType": "address",
          "name": "spender",
          "type": "address"
        },
        {
          "internalType": "uint256",
          "name": "allowance",
          "type": "uint256"
        },
        {
          "internalType": "uint256",
          "name": "needed",
          "type": "uint256"
        }
      ],
      "name": "ERC20InsufficientAllowance",
      "type": "error"
    },
    {
      "inputs": [
        {
          "internalType": "address",
          "name": "sender",
          "type": "address"
        },
        {
          "internalType": "uint256",
          "name": "balance",
          "type": "uint256"
        },
        {
          "internalType": "uint256",
          "name": "needed",
          "type": "uint256"
        }
      ],
      "name": "ERC20InsufficientBalance",
      "type": "error"
    },
    {
      "inputs": [
        {
          "internalType": "address",
          "name": "approver",
          "type": "address"
        }
      ],
      "name": "ERC20InvalidApprover",
      "type": "error"
    },
    {
      "inputs": [
        {
          "internalType": "address",
          "name": "receiver",
          "type": "address"
        }
      ],
      "name": "ERC20InvalidReceiver",
      "type": "error"
    },
    {
      "inputs": [
        {
          "internalType": "address",
          "name": "sender",
          "type": "address"
        }
      ],
      "name": "ERC20InvalidSender",
      "type": "error"
    },
    {
      "inputs": [
        {
          "internalType": "address",
          "name": "spender",
          "type": "address"
        }
      ],
      "name": "ERC20InvalidSpender",
      "type": "error"
    },
    {
      "inputs": [],
      "name": "EnforcedPause",
      "type": "error"
    },
    {
      "inputs": [],
      "name": "ExpectedPause",
      "type": "error"
    },
    {
      "inputs": [
        {
          "internalType": "address",
          "name": "owner",
          "type": "address"
        }
      ],
      "name": "OwnableInvalidOwner",
      "type": "error"
    },
    {
      "inputs": [
        {
          "internalType": "address",
          "name": "account",
          "type": "address"
        }
      ],
      "name": "OwnableUnauthorizedAccount",
      "type": "error"
    },
    {
      "anonymous": false,
      "inputs": [
        {
          "indexed": true,
          "internalType": "address",
          "name": "owner",
          "type": "address"
        },
        {
          "indexed": true,
          "internalType": "address",
          "name": "spender",
          "type": "address"
        },
        {
          "indexed": false,
          "internalType": "uint256",
          "name": "value",
          "type": "uint256"
        }
      ],
      "name": "Approval",
      "type": "event"
    },
    {
      "anonymous": false,
      "inputs": [
        {
          "indexed": true,
          "internalType": "address",
          "name": "user",
          "type": "address"
        },
        {
          "indexed": false,
          "internalType": "uint256",
          "name": "reward",
          "type": "uint256"
        }
      ],
      "name": "FarcasterShare",
      "type": "event"
    },
    {
      "anonymous": false,
      "inputs": [
        {
          "indexed": true,
          "internalType": "address",
          "name": "previousOwner",
          "type": "address"
        },
        {
          "indexed": true,
          "internalType": "address",
          "name": "newOwner",
          "type": "address"
        }
      ],
      "name": "OwnershipTransferred",
      "type": "event"
    },
    {
      "anonymous": false,
      "inputs": [
        {
          "indexed": false,
          "internalType": "address",
          "name": "account",
          "type": "address"
        }
      ],
      "name": "Paused",
      "type": "event"
    },
    {
      "anonymous": false,
      "inputs": [
        {
          "indexed": true,
          "internalType": "address",
          "name": "user",
          "type": "address"
        },
        {
          "indexed": false,
          "internalType": "uint256",
          "name": "streak",
          "type": "uint256"
        },
        {
          "indexed": false,
          "internalType": "uint256",
          "name": "bonus",
          "type": "uint256"
        }
      ],
      "name": "StreakBonus",
      "type": "event"
    },
    {
      "anonymous": false,
      "inputs": [
        {
          "indexed": true,
          "internalType": "address",
          "name": "user",
          "type": "address"
        },
        {
          "indexed": false,
          "internalType": "uint256",
          "name": "taskId",
          "type": "uint256"
        },
        {
          "indexed": false,
          "internalType": "uint256",
          "name": "reward",
          "type": "uint256"
        }
      ],
      "name": "TaskCompleted",
      "type": "event"
    },
    {
      "anonymous": false,
      "inputs": [
        {
          "indexed": true,
          "internalType": "address",
          "name": "from",
          "type": "address"
        },
        {
          "indexed": true,
          "internalType": "address",
          "name": "to",
          "type": "address"
        },
        {
          "indexed": false,
          "internalType": "uint256",
          "name": "value",
          "type": "uint256"
        }
      ],
      "name": "Transfer",
      "type": "event"
    },
    {
      "anonymous": false,
      "inputs": [
        {
          "indexed": false,
          "internalType": "address",
          "name": "account",
          "type": "address"
        }
      ],
      "name": "Unpaused",
      "type": "event"
    },
    {
      "anonymous": false,
      "inputs": [
        {
          "indexed": true,
          "internalType": "address",
          "name": "user",
          "type": "address"
        },
        {
          "indexed": false,
          "internalType": "uint256",
          "name": "goalId",
          "type": "uint256"
        },
        {
          "indexed": false,
          "internalType": "uint256",
          "name": "reward",
          "type": "uint256"
        }
      ],
      "name": "WeeklyGoal",
      "type": "event"
    },
    {
      "inputs": [],
      "name": "FARCASTER_SHARE_REWARD",
      "outputs": [
        {
          "internalType": "uint256",
          "name": "",
          "type": "uint256"
        }
      ],
      "stateMutability": "view",
      "type": "function"
    },
    {
      "inputs": [],
      "name": "STREAK_BONUS_MULTIPLIER",
      "outputs": [
        {
          "internalType": "uint256",
          "name": "",
          "type": "uint256"
        }
      ],
      "stateMutability": "view",
      "type": "function"
    },
    {
      "inputs": [],
      "name": "TASK_REWARD_BASE",
      "outputs": [
        {
          "internalType": "uint256",
          "name": "",
          "type": "uint256"
        }
      ],
      "stateMutability": "view",
      "type": "function"
    },
    {
      "inputs": [],
      "name": "WEEKLY_GOAL_REWARD",
      "outputs": [
        {
          "internalType": "uint256",
          "name": "",
          "type": "uint256"
        }
      ],
      "stateMutability": "view",
      "type": "function"
    },
    {
      "inputs": [
        {
          "internalType": "address",
          "name": "owner",
          "type": "address"
        },
        {
          "internalType": "address",
          "name": "spender",
          "type": "address"
        }
      ],
      "name": "allowance",
      "outputs": [
        {
          "internalType": "uint256",
          "name": "",
          "type": "uint256"
        }
      ],
      "stateMutability": "view",
      "type": "function"
    },
    {
      "inputs": [
        {
          "internalType": "address",
          "name": "spender",
          "type": "address"
        },
        {
          "internalType": "uint256",
          "name": "value",
          "type": "uint256"
        }
      ],
      "name": "approve",
      "outputs": [
        {
          "internalType": "bool",
          "name": "",
          "type": "bool"
        }
      ],
      "stateMutability": "nonpayable",
      "type": "function"
    },
    {
      "inputs": [
        {
          "internalType": "address",
          "name": "account",
          "type": "address"
        }
      ],
      "name": "balanceOf",
      "outputs": [
        {
          "internalType": "uint256",
          "name": "",
          "type": "uint256"
        }
      ],
      "stateMutability": "view",
      "type": "function"
    },
    {
      "inputs": [
        {
          "internalType": "uint256",
          "name": "taskId",
          "type": "uint256"
        },
        {
          "internalType": "string",
          "name": "priority",
          "type": "string"
        }
      ],
      "name": "completeTask",
      "outputs": [],
      "stateMutability": "nonpayable",
      "type": "function"
    },
    {
      "inputs": [
        {
          "internalType": "uint256",
          "name": "goalId",
          "type": "uint256"
        }
      ],
      "name": "completeWeeklyGoal",
      "outputs": [],
      "stateMutability": "nonpayable",
      "type": "function"
    },
    {
      "inputs": [
        {
          "internalType": "address",
          "name": "",
          "type": "address"
        }
      ],
      "name": "completedTasks",
      "outputs": [
        {
          "internalType": "uint256",
          "name": "",
          "type": "uint256"
        }
      ],
      "stateMutability": "view",
      "type": "function"
    },
    {
      "inputs": [
        {
          "internalType": "address",
          "name": "",
          "type": "address"
        }
      ],
      "name": "currentStreak",
      "outputs": [
        {
          "internalType": "uint256",
          "name": "",
          "type": "uint256"
        }
      ],
      "stateMutability": "view",
      "type": "function"
    },
    {
      "inputs": [],
      "name": "decimals",
      "outputs": [
        {
          "internalType": "uint8",
          "name": "",
          "type": "uint8"
        }
      ],
      "stateMutability": "view",
      "type": "function"
    },
    {
      "inputs": [
        {
          "internalType": "address",
          "name": "user",
          "type": "address"
        }
      ],
      "name": "getUserStats",
      "outputs": [
        {
          "internalType": "uint256",
          "name": "tasksCompleted",
          "type": "uint256"
        },
        {
          "internalType": "uint256",
          "name": "streak",
          "type": "uint256"
        },
        {
          "internalType": "uint256",
          "name": "balance",
          "type": "uint256"
        },
        {
          "internalType": "uint256",
          "name": "weeklyGoals",
          "type": "uint256"
        }
      ],
      "stateMutability": "view",
      "type": "function"
    },
    {
      "inputs": [
        {
          "internalType": "address",
          "name": "",
          "type": "address"
        }
      ],
      "name": "lastCompletionDate",
      "outputs": [
        {
          "internalType": "uint256",
          "name": "",
          "type": "uint256"
        }
      ],
      "stateMutability": "view",
      "type": "function"
    },
    {
      "inputs": [
        {
          "internalType": "address",
          "name": "to",
          "type": "address"
        },
        {
          "internalType": "uint256",
          "name": "amount",
          "type": "uint256"
        }
      ],
      "name": "mint",
      "outputs": [],
      "stateMutability": "nonpayable",
      "type": "function"
    },
    {
      "inputs": [],
      "name": "name",
      "outputs": [
        {
          "internalType": "string",
          "name": "",
          "type": "string"
        }
      ],
      "stateMutability": "view",
      "type": "function"
    },
    {
      "inputs": [],
      "name": "owner",
      "outputs": [
        {
          "internalType": "address",
          "name": "",
          "type": "address"
        }
      ],
      "stateMutability": "view",
      "type": "function"
    },
    {
      "inputs": [],
      "name": "pause",
      "outputs": [],
      "stateMutability": "nonpayable",
      "type": "function"
    },
    {
      "inputs": [],
      "name": "paused",
      "outputs": [
        {
          "internalType": "bool",
          "name": "",
          "type": "bool"
        }
      ],
      "stateMutability": "view",
      "type": "function"
    },
    {
      "inputs": [
        {
          "internalType": "string",
          "name": "",
          "type": "string"
        }
      ],
      "name": "priorityMultipliers",
      "outputs": [
        {
          "internalType": "uint256",
          "name": "",
          "type": "uint256"
        }
      ],
      "stateMutability": "view",
      "type": "function"
    },
    {
      "inputs": [],
      "name": "renounceOwnership",
      "outputs": [],
      "stateMutability": "nonpayable",
      "type": "function"
    },
    {
      "inputs": [],
      "name": "rewardFarcasterShare",
      "outputs": [],
      "stateMutability": "nonpayable",
      "type": "function"
    },
    {
      "inputs": [],
      "name": "symbol",
      "outputs": [
        {
          "internalType": "string",
          "name": "",
          "type": "string"
        }
      ],
      "stateMutability": "view",
      "type": "function"
    },
    {
      "inputs": [],
      "name": "totalSupply",
      "outputs": [
        {
          "internalType": "uint256",
          "name": "",
          "type": "uint256"
        }
      ],
      "stateMutability": "view",
      "type": "function"
    },
    {
      "inputs": [
        {
          "internalType": "address",
          "name": "to",
          "type": "address"
        },
        {
          "internalType": "uint256",
          "name": "value",
          "type": "uint256"
        }
      ],
      "name": "transfer",
      "outputs": [
        {
          "internalType": "bool",
          "name": "",
          "type": "bool"
        }
      ],
      "stateMutability": "nonpayable",
      "type": "function"
    },
    {
      "inputs": [
        {
          "internalType": "address",
          "name": "from",
          "type": "address"
        },
        {
          "internalType": "address",
          "name": "to",
          "type": "address"
        },
        {
          "internalType": "uint256",
          "name": "value",
          "type": "uint256"
        }
      ],
      "name": "transferFrom",
      "outputs": [
        {
          "internalType": "bool",
          "name": "",
          "type": "bool"
        }
      ],
      "stateMutability": "nonpayable",
      "type": "function"
    },
    {
      "inputs": [
        {
          "internalType": "address",
          "name": "newOwner",
          "type": "address"
        }
      ],
      "name": "transferOwnership",
      "outputs": [],
      "stateMutability": "nonpayable",
      "type": "function"
    },
    {
      "inputs": [],
      "name": "unpause",
      "outputs": [],
      "stateMutability": "nonpayable",
      "type": "function"
    },
    {
      "inputs": [
        {
          "internalType": "address",
          "name": "",
          "type": "address"
        }
      ],
      "name": "weeklyGoalsCompleted",
      "outputs": [
        {
          "internalType": "uint256",
          "name": "",
          "type": "uint256"
        }
      ],
      "stateMutability": "view",
      "type": "function"
    }
  ],
  "bytecode": "0x60806040523480156200001157600080fd5b50336040518060400160405280600a8152602001692932a6b4902a37b5b2b760b11b8152506040518060400160405280600481526020016352454d4960e01b81525081600390816200006491906200024f565b5060046200007382826200024f565b5050506001600160a01b038116620000a557604051631e4fbdf760e01b81526000600482015260240160405180910390fd5b620000b08162000158565b506001600a604051620000cc90624c4f5760e81b815260030190565b90815260405190819003602001812091909155654d454449554d60d01b8152600290600a906006019081526040519081900360200181209190915563090928e960e31b8152600390600a906004019081526040519081900360200181209190915565155491d1539560d21b8152600590600a90600601908152604051908190036020019020556200031b565b600580546001600160a01b038381166001600160a01b0319831681179093556040519116919082907f8be0079c531659141344cd1fd0a4f28419497f9722a3daafe3b4186f6b6457e090600090a35050565b634e487b7160e01b600052604160045260246000fd5b600181811c90821680620001d557607f821691505b602082108103620001f657634e487b7160e01b600052602260045260246000fd5b50919050565b601f8211156200024a57600081815260208120601f850160051c81016020861015620002255750805b601f850160051c820191505b81811015620002465782815560010162000231565b5050505b505050565b81516001600160401b038111156200026b576200026b620001aa565b62000283816200027c8454620001c0565b84620001fc565b602080601f831160018114620002bb5760008415620002a25750858301515b600019600386901b1c1916600185901b17855562000246565b600085815260208120601f198616915b82811015620002ec57888601518255948401946001909101908401620002cb565b50858210156200030b5787850151600019600388901b60f8161c191681555b5050505050600190811b01905550565b6111d3806200032b6000396000f3fe608060405234801561001057600080fd5b50600436106101cf5760003560e01c80635c975abb116101045780638da5cb5b116100a2578063c343c41011610071578063c343c4101461040d578063c9e4e38e1461042d578063dd62ed3e1461044d578063f2fde38b1461048657600080fd5b80638da5cb5b146103cf57806395d89b41146103ea578063a9059cbb146103f2578063bde87bdd1461040557600080fd5b806374aaa760116100de57806374aaa760146103995780637f32e8fa146103ac5780638456cb59146103bf5780638490bc68146103c757600080fd5b80635c975abb1461035657806370a0823114610368578063715018a61461039157600080fd5b8063313ce5671161017157806340c10f191161014b57806340c10f191461029a5780634e43603a146102ad57806350ff6671146103165780635c45f7391461033657600080fd5b8063313ce5671461027b57806335058ec51461028a5780633f4ba83a1461029257600080fd5b806318160ddd116101ad57806318160ddd1461022b578063186368921461023357806321da56071461025e57806323b872dd1461026857600080fd5b806306fdde03146101d4578063095ea7b3146101f25780630df03e6114610215575b600080fd5b6101dc610499565b6040516101e99190610e89565b60405180910390f35b610205610200366004610ed8565b61052b565b60405190151581526020016101e9565b61021d606481565b6040519081526020016101e9565b60025461021d565b61021d610241366004610fa5565b8051602081830181018051600a8252928201919093012091525481565b610266610545565b005b610205610276366004610fe2565b610590565b604051601281526020016101e9565b61021d600281565b6102666105b4565b6102666102a8366004610ed8565b6105c6565b6102f66102bb36600461101e565b6001600160a01b0316600090815260066020908152604080832054600783528184205484845282852054600990945291909320549293909290565b6040805194855260208501939093529183015260608201526080016101e9565b61021d61032436600461101e565b60096020526000908152604090205481565b61021d61034436600461101e565b60076020526000908152604090205481565b600554600160a01b900460ff16610205565b61021d61037636600461101e565b6001600160a01b031660009081526020819052604090205490565b6102666105dc565b6102666103a7366004611039565b6105ee565b6102666103ba366004611080565b61076f565b6102666107e0565b61021d600581565b6005546040516001600160a01b0390911681526020016101e9565b6101dc6107f0565b610205610400366004610ed8565b6107ff565b61021d600a81565b61021d61041b36600461101e565b60066020526000908152604090205481565b61021d61043b36600461101e565b60086020526000908152604090205481565b61021d61045b366004611099565b6001600160a01b03918216600090815260016020908152604080832093909416825291909152205490565b61026661049436600461101e565b61080d565b6060600380546104a8906110cc565b80601f01602080910402602001604051908101604052809291908181526020018280546104d4906110cc565b80156105215780601f106104f657610100808354040283529160200191610521565b820191906000526020600020905b81548152906001019060200180831161050457829003601f168201915b5050505050905090565b60003361053981858561084b565b60019150505b92915050565b61054d61085d565b610558336005610888565b6040516005815233907f9b7cf449d798a2bd6a324666aaef205ce300aa8bf14940bd309e889ac63c28989060200160405180910390a2565b60003361059e8582856108be565b6105a985858561093d565b506001949350505050565b6105bc61099c565b6105c46109c9565b565b6105ce61099c565b6105d88282610888565b5050565b6105e461099c565b6105c46000610a1e565b6105f661085d565b600081511161064c5760405162461bcd60e51b815260206004820152601860248201527f5072696f726974792063616e6e6f7420626520656d707479000000000000000060448201526064015b60405180910390fd5b6000600a8260405161065e9190611106565b908152602001604051809103902054600a6106799190611138565b9050600061068633610a70565b90506000610694828461114f565b3360009081526006602052604081208054929350906106b283611162565b91905055506106c033610aea565b3360008181526008602052604090204290556106dc9082610888565b604080518681526020810183905233917f50c83292cbed2e0e82c326c455870ed0cfe292eb185581159265e76147d205ea910160405180910390a2811561076857336000818152600760209081526040918290205482519081529081018590527f1f7ced502914e916794069209edc9bb5a0a25fe3cd8c8dfbcd6039d7eee4f25f910160405180910390a25b5050505050565b61077761085d565b33600090815260096020526040812080549161079283611162565b91905055506107a2336064610888565b604080518281526064602082015233917f602d846c77b430c66c9c2ea67539f834048e7e96a6d42b6efd24dcf8158c8929910160405180910390a250565b6107e861099c565b6105c4610b94565b6060600480546104a8906110cc565b60003361053981858561093d565b61081561099c565b6001600160a01b03811661083f57604051631e4fbdf760e01b815260006004820152602401610643565b61084881610a1e565b50565b6108588383836001610bd7565b505050565b600554600160a01b900460ff16156105c45760405163d93c066560e01b815260040160405180910390fd5b6001600160a01b0382166108b25760405163ec442f0560e01b815260006004820152602401610643565b6105d860008383610cac565b6001600160a01b03838116600090815260016020908152604080832093861683529290522054600019811015610937578181101561092857604051637dc7a0d960e11b81526001600160a01b03841660048201526024810182905260448101839052606401610643565b61093784848484036000610bd7565b50505050565b6001600160a01b03831661096757604051634b637e8f60e11b815260006004820152602401610643565b6001600160a01b0382166109915760405163ec442f0560e01b815260006004820152602401610643565b610858838383610cac565b6005546001600160a01b031633146105c45760405163118cdaa760e01b8152336004820152602401610643565b6109d1610d11565b6005805460ff60a01b191690557f5db9ee0a495bf2e6ff9c91a7834c1ba4fdd244a5e8aa4e537bd38aeae4b073aa335b6040516001600160a01b03909116815260200160405180910390a1565b600580546001600160a01b038381166001600160a01b0319831681179093556040519116919082907f8be0079c531659141344cd1fd0a4f28419497f9722a3daafe3b4186f6b6457e090600090a35050565b6001600160a01b0381166000908152600760205260408120546003811015610a9b5750600092915050565b6007811015610aad5750600a92915050565b600e811015610ac957610ac2600a6002611138565b9392505050565b601e811015610ade57610ac2600a6003611138565b610ac2600a6005611138565b6001600160a01b03811660009081526008602052604081205490610b11620151804261117b565b90506000610b22620151808461117b565b9050821580610b3057508082115b1561093757610b4081600161114f565b8203610b74576001600160a01b0384166000908152600760205260408120805491610b6a83611162565b9190505550610937565b5050506001600160a01b0316600090815260076020526040902060019055565b610b9c61085d565b6005805460ff60a01b1916600160a01b1790557f62e78cea01bee320cd4e420270b5ea74000d11b0c9f74754ebdbfc544b05a258610a013390565b6001600160a01b038416610c015760405163e602df0560e01b815260006004820152602401610643565b6001600160a01b038316610c2b57604051634a1406b160e11b815260006004820152602401610643565b6001600160a01b038085166000908152600160209081526040808320938716835292905220829055801561093757826001600160a01b0316846001600160a01b03167f8c5be1e5ebec7d5bd14f71427d1e84f3dd0314c0f7b2291e5b200ac8c7c3b92584604051610c9e91815260200190565b60405180910390a350505050565b600554600160a01b900460ff1615610d065760405162461bcd60e51b815260206004820152601b60248201527f546f6b656e207472616e73666572207768696c652070617573656400000000006044820152606401610643565b610858838383610d3b565b600554600160a01b900460ff166105c457604051638dfc202b60e01b815260040160405180910390fd5b6001600160a01b038316610d66578060026000828254610d5b919061114f565b90915550610dd89050565b6001600160a01b03831660009081526020819052604090205481811015610db95760405163391434e360e21b81526001600160a01b03851660048201526024810182905260448101839052606401610643565b6001600160a01b03841660009081526020819052604090209082900390555b6001600160a01b038216610df457600280548290039055610e13565b6001600160a01b03821660009081526020819052604090208054820190555b816001600160a01b0316836001600160a01b03167fddf252ad1be2c89b69c2b068fc378daa952ba7f163c4a11628f55a4df523b3ef83604051610e5891815260200190565b60405180910390a3505050565b60005b83811015610e80578181015183820152602001610e68565b50506000910152565b6020815260008251806020840152610ea8816040850160208701610e65565b601f01601f19169190910160400192915050565b80356001600160a01b0381168114610ed357600080fd5b919050565b60008060408385031215610eeb57600080fd5b610ef483610ebc565b946020939093013593505050565b634e487b7160e01b600052604160045260246000fd5b600082601f830112610f2957600080fd5b813567ffffffffffffffff80821115610f4457610f44610f02565b604051601f8301601f19908116603f01168101908282118183101715610f6c57610f6c610f02565b81604052838152866020858801011115610f8557600080fd5b836020870160208301376000602085830101528094505050505092915050565b600060208284031215610fb757600080fd5b813567ffffffffffffffff811115610fce57600080fd5b610fda84828501610f18565b949350505050565b600080600060608486031215610ff757600080fd5b61100084610ebc565b925061100e60208501610ebc565b9150604084013590509250925092565b60006020828403121561103057600080fd5b610ac282610ebc565b6000806040838503121561104c57600080fd5b82359150602083013567ffffffffffffffff81111561106a57600080fd5b61107685828601610f18565b9150509250929050565b60006020828403121561109257600080fd5b5035919050565b600080604083850312156110ac57600080fd5b6110b583610ebc565b91506110c360208401610ebc565b90509250929050565b600181811c908216806110e057607f821691505b60208210810361110057634e487b7160e01b600052602260045260246000fd5b50919050565b60008251611118818460208701610e65565b9190910192915050565b634e487b7160e01b600052601160045260246000fd5b808202811582820484141761053f5761053f611122565b8082018082111561053f5761053f611122565b60006001820161117457611174611122565b5060010190565b60008261119857634e487b7160e01b600052601260045260246000fd5b50049056fea264697066735822122083f069c5c93af903500e247ec1ae2b7b3c58434286592264ee05ffd38e25b8b364736f6c63430008140033",
  "linkReferences": {},
  "deployedLinkReferences": {}
}